{
  "contractName": "Registration",
  "abi": [
    {
      "inputs": [
        {
          "internalType": "uint256",
          "name": "",
          "type": "uint256"
        }
      ],
      "name": "applications",
      "outputs": [
        {
          "internalType": "string",
          "name": "fullname",
          "type": "string"
        },
        {
          "internalType": "string",
          "name": "email",
          "type": "string"
        },
        {
          "internalType": "string",
          "name": "livingAddress",
          "type": "string"
        },
        {
          "internalType": "string",
          "name": "gender",
          "type": "string"
        },
        {
          "internalType": "string",
          "name": "userType",
          "type": "string"
        },
        {
          "internalType": "string",
          "name": "vehicleName",
          "type": "string"
        },
        {
          "internalType": "string",
          "name": "vehicleNumber",
          "type": "string"
        },
        {
          "internalType": "uint256",
          "name": "requestId",
          "type": "uint256"
        },
        {
          "internalType": "enum Registration.Status",
          "name": "status",
          "type": "uint8"
        },
        {
          "internalType": "uint256",
          "name": "userId",
          "type": "uint256"
        }
      ],
      "stateMutability": "view",
      "type": "function",
      "constant": true
    },
    {
      "inputs": [],
      "name": "approvedUserCounter",
      "outputs": [
        {
          "internalType": "uint256",
          "name": "",
          "type": "uint256"
        }
      ],
      "stateMutability": "view",
      "type": "function",
      "constant": true
    },
    {
      "inputs": [
        {
          "internalType": "address",
          "name": "",
          "type": "address"
        }
      ],
      "name": "registeredUsers",
      "outputs": [
        {
          "internalType": "bool",
          "name": "",
          "type": "bool"
        }
      ],
      "stateMutability": "view",
      "type": "function",
      "constant": true
    },
    {
      "inputs": [],
      "name": "requestCounter",
      "outputs": [
        {
          "internalType": "uint256",
          "name": "",
          "type": "uint256"
        }
      ],
      "stateMutability": "view",
      "type": "function",
      "constant": true
    },
    {
      "inputs": [
        {
          "internalType": "string",
          "name": "fullname",
          "type": "string"
        },
        {
          "internalType": "string",
          "name": "email",
          "type": "string"
        },
        {
          "internalType": "string",
          "name": "livingAddress",
          "type": "string"
        },
        {
          "internalType": "string",
          "name": "gender",
          "type": "string"
        },
        {
          "internalType": "string",
          "name": "userType",
          "type": "string"
        },
        {
          "internalType": "string",
          "name": "vehicleName",
          "type": "string"
        },
        {
          "internalType": "string",
          "name": "vehicleNumber",
          "type": "string"
        }
      ],
      "name": "registerUser",
      "outputs": [],
      "stateMutability": "payable",
      "type": "function",
      "payable": true
    },
    {
      "inputs": [
        {
          "internalType": "uint256",
          "name": "requestId",
          "type": "uint256"
        }
      ],
      "name": "getApplicationDetails",
      "outputs": [
        {
          "internalType": "string",
          "name": "fullname",
          "type": "string"
        },
        {
          "internalType": "string",
          "name": "email",
          "type": "string"
        },
        {
          "internalType": "string",
          "name": "livingAddress",
          "type": "string"
        },
        {
          "internalType": "string",
          "name": "gender",
          "type": "string"
        },
        {
          "internalType": "string",
          "name": "userType",
          "type": "string"
        },
        {
          "internalType": "string",
          "name": "vehicleName",
          "type": "string"
        },
        {
          "internalType": "string",
          "name": "vehicleNumber",
          "type": "string"
        },
        {
          "internalType": "string",
          "name": "status",
          "type": "string"
        },
        {
          "internalType": "uint256",
          "name": "userId",
          "type": "uint256"
        }
      ],
      "stateMutability": "view",
      "type": "function",
      "constant": true
    },
    {
      "inputs": [
        {
          "internalType": "uint256",
          "name": "requestId",
          "type": "uint256"
        },
        {
          "internalType": "bool",
          "name": "isApproved",
          "type": "bool"
        }
      ],
      "name": "setApplicationStatus",
      "outputs": [],
      "stateMutability": "nonpayable",
      "type": "function"
    },
    {
      "inputs": [],
      "name": "getAllApplications",
      "outputs": [
        {
          "components": [
            {
              "internalType": "string",
              "name": "fullname",
              "type": "string"
            },
            {
              "internalType": "string",
              "name": "email",
              "type": "string"
            },
            {
              "internalType": "string",
              "name": "livingAddress",
              "type": "string"
            },
            {
              "internalType": "string",
              "name": "gender",
              "type": "string"
            },
            {
              "internalType": "string",
              "name": "userType",
              "type": "string"
            },
            {
              "internalType": "string",
              "name": "vehicleName",
              "type": "string"
            },
            {
              "internalType": "string",
              "name": "vehicleNumber",
              "type": "string"
            },
            {
              "internalType": "uint256",
              "name": "requestId",
              "type": "uint256"
            },
            {
              "internalType": "enum Registration.Status",
              "name": "status",
              "type": "uint8"
            },
            {
              "internalType": "uint256",
              "name": "userId",
              "type": "uint256"
            }
          ],
          "internalType": "struct Registration.Application[]",
          "name": "",
          "type": "tuple[]"
        }
      ],
      "stateMutability": "view",
      "type": "function",
      "constant": true
    }
  ],
  "bytecode": "0x60806040526000600255600060035534801561001a57600080fd5b506124438061002a6000396000f3fe60806040526004361061007b5760003560e01c8063973a814e1161004e578063973a814e1461012f578063a9db46c51461015a578063d4aa738014610183578063dfefadff146101c85761007b565b80630e50cee51461008057806324b9a451146100bd5780634ae8af09146100e8578063501bc55414610104575b600080fd5b34801561008c57600080fd5b506100a760048036038101906100a291906119fa565b61020e565b6040516100b49190611eba565b60405180910390f35b3480156100c957600080fd5b506100d261022e565b6040516100df91906120a7565b60405180910390f35b61010260048036038101906100fd9190611a23565b610234565b005b34801561011057600080fd5b50610119610509565b6040516101269190611e98565b60405180910390f35b34801561013b57600080fd5b50610144610abd565b60405161015191906120a7565b60405180910390f35b34801561016657600080fd5b50610181600480360381019061017c9190611b92565b610ac3565b005b34801561018f57600080fd5b506101aa60048036038101906101a59190611b69565b610d3b565b6040516101bf99989796959493929190611ed5565b60405180910390f35b3480156101d457600080fd5b506101ef60048036038101906101ea9190611b69565b611260565b6040516102059a99989796959493929190611f9a565b60405180910390f35b60016020528060005260406000206000915054906101000a900460ff1681565b60035481565b600160003373ffffffffffffffffffffffffffffffffffffffff1673ffffffffffffffffffffffffffffffffffffffff16815260200190815260200160002060009054906101000a900460ff16156102c1576040517f08c379a00000000000000000000000000000000000000000000000000000000081526004016102b890612087565b60405180910390fd5b600260008154809291906102d49061229e565b9190505550604051806101400160405280888152602001878152602001868152602001858152602001848152602001838152602001828152602001600254815260200160006002811115610351577f4e487b7100000000000000000000000000000000000000000000000000000000600052602160045260246000fd5b815260200160008152506000806002548152602001908152602001600020600082015181600001908051906020019061038b929190611825565b5060208201518160010190805190602001906103a8929190611825565b5060408201518160020190805190602001906103c5929190611825565b5060608201518160030190805190602001906103e2929190611825565b5060808201518160040190805190602001906103ff929190611825565b5060a082015181600501908051906020019061041c929190611825565b5060c0820151816006019080519060200190610439929190611825565b5060e082015181600701556101008201518160080160006101000a81548160ff02191690836002811115610496577f4e487b7100000000000000000000000000000000000000000000000000000000600052602160045260246000fd5b0217905550610120820151816009015590505060018060003373ffffffffffffffffffffffffffffffffffffffff1673ffffffffffffffffffffffffffffffffffffffff16815260200190815260200160002060006101000a81548160ff02191690831515021790555050505050505050565b6060600060025467ffffffffffffffff81111561054f577f4e487b7100000000000000000000000000000000000000000000000000000000600052604160045260246000fd5b60405190808252806020026020018201604052801561058857816020015b6105756118ab565b81526020019060019003908161056d5790505b5090506000600190505b6002548111610ab557600080828152602001908152602001600020604051806101400160405290816000820180546105c99061226c565b80601f01602080910402602001604051908101604052809291908181526020018280546105f59061226c565b80156106425780601f1061061757610100808354040283529160200191610642565b820191906000526020600020905b81548152906001019060200180831161062557829003601f168201915b5050505050815260200160018201805461065b9061226c565b80601f01602080910402602001604051908101604052809291908181526020018280546106879061226c565b80156106d45780601f106106a9576101008083540402835291602001916106d4565b820191906000526020600020905b8154815290600101906020018083116106b757829003601f168201915b505050505081526020016002820180546106ed9061226c565b80601f01602080910402602001604051908101604052809291908181526020018280546107199061226c565b80156107665780601f1061073b57610100808354040283529160200191610766565b820191906000526020600020905b81548152906001019060200180831161074957829003601f168201915b5050505050815260200160038201805461077f9061226c565b80601f01602080910402602001604051908101604052809291908181526020018280546107ab9061226c565b80156107f85780601f106107cd576101008083540402835291602001916107f8565b820191906000526020600020905b8154815290600101906020018083116107db57829003601f168201915b505050505081526020016004820180546108119061226c565b80601f016020809104026020016040519081016040528092919081815260200182805461083d9061226c565b801561088a5780601f1061085f5761010080835404028352916020019161088a565b820191906000526020600020905b81548152906001019060200180831161086d57829003601f168201915b505050505081526020016005820180546108a39061226c565b80601f01602080910402602001604051908101604052809291908181526020018280546108cf9061226c565b801561091c5780601f106108f15761010080835404028352916020019161091c565b820191906000526020600020905b8154815290600101906020018083116108ff57829003601f168201915b505050505081526020016006820180546109359061226c565b80601f01602080910402602001604051908101604052809291908181526020018280546109619061226c565b80156109ae5780601f10610983576101008083540402835291602001916109ae565b820191906000526020600020905b81548152906001019060200180831161099157829003601f168201915b50505050508152602001600782015481526020016008820160009054906101000a900460ff166002811115610a0c577f4e487b7100000000000000000000000000000000000000000000000000000000600052602160045260246000fd5b6002811115610a44577f4e487b7100000000000000000000000000000000000000000000000000000000600052602160045260246000fd5b815260200160098201548152505082600183610a609190612189565b81518110610a97577f4e487b7100000000000000000000000000000000000000000000000000000000600052603260045260246000fd5b60200260200101819052508080610aad9061229e565b915050610592565b508091505090565b60025481565b600080600084815260200190815260200160002090508115610c1e5760006002811115610b19577f4e487b7100000000000000000000000000000000000000000000000000000000600052602160045260246000fd5b8160080160009054906101000a900460ff166002811115610b63577f4e487b7100000000000000000000000000000000000000000000000000000000600052602160045260246000fd5b14610ba3576040517f08c379a0000000000000000000000000000000000000000000000000000000008152600401610b9a90612067565b60405180910390fd5b60018160080160006101000a81548160ff02191690836002811115610bf1577f4e487b7100000000000000000000000000000000000000000000000000000000600052602160045260246000fd5b021790555060036000815480929190610c099061229e565b91905055506003548160090181905550610d36565b60006002811115610c58577f4e487b7100000000000000000000000000000000000000000000000000000000600052602160045260246000fd5b8160080160009054906101000a900460ff166002811115610ca2577f4e487b7100000000000000000000000000000000000000000000000000000000600052602160045260246000fd5b14610ce2576040517f08c379a0000000000000000000000000000000000000000000000000000000008152600401610cd990612067565b60405180910390fd5b60028160080160006101000a81548160ff02191690836002811115610d30577f4e487b7100000000000000000000000000000000000000000000000000000000600052602160045260246000fd5b02179055505b505050565b6060806060806060806060806000806000808c815260200190815260200160002060405180610140016040529081600082018054610d789061226c565b80601f0160208091040260200160405190810160405280929190818152602001828054610da49061226c565b8015610df15780601f10610dc657610100808354040283529160200191610df1565b820191906000526020600020905b815481529060010190602001808311610dd457829003601f168201915b50505050508152602001600182018054610e0a9061226c565b80601f0160208091040260200160405190810160405280929190818152602001828054610e369061226c565b8015610e835780601f10610e5857610100808354040283529160200191610e83565b820191906000526020600020905b815481529060010190602001808311610e6657829003601f168201915b50505050508152602001600282018054610e9c9061226c565b80601f0160208091040260200160405190810160405280929190818152602001828054610ec89061226c565b8015610f155780601f10610eea57610100808354040283529160200191610f15565b820191906000526020600020905b815481529060010190602001808311610ef857829003601f168201915b50505050508152602001600382018054610f2e9061226c565b80601f0160208091040260200160405190810160405280929190818152602001828054610f5a9061226c565b8015610fa75780601f10610f7c57610100808354040283529160200191610fa7565b820191906000526020600020905b815481529060010190602001808311610f8a57829003601f168201915b50505050508152602001600482018054610fc09061226c565b80601f0160208091040260200160405190810160405280929190818152602001828054610fec9061226c565b80156110395780601f1061100e57610100808354040283529160200191611039565b820191906000526020600020905b81548152906001019060200180831161101c57829003601f168201915b505050505081526020016005820180546110529061226c565b80601f016020809104026020016040519081016040528092919081815260200182805461107e9061226c565b80156110cb5780601f106110a0576101008083540402835291602001916110cb565b820191906000526020600020905b8154815290600101906020018083116110ae57829003601f168201915b505050505081526020016006820180546110e49061226c565b80601f01602080910402602001604051908101604052809291908181526020018280546111109061226c565b801561115d5780601f106111325761010080835404028352916020019161115d565b820191906000526020600020905b81548152906001019060200180831161114057829003601f168201915b50505050508152602001600782015481526020016008820160009054906101000a900460ff1660028111156111bb577f4e487b7100000000000000000000000000000000000000000000000000000000600052602160045260246000fd5b60028111156111f3577f4e487b7100000000000000000000000000000000000000000000000000000000600052602160045260246000fd5b815260200160098201548152505090506000611213826101000151611679565b9050816000015182602001518360400151846060015185608001518660a001518760c00151878961012001519a509a509a509a509a509a509a509a509a5050509193959799909294969850565b60006020528060005260406000206000915090508060000180546112839061226c565b80601f01602080910402602001604051908101604052809291908181526020018280546112af9061226c565b80156112fc5780601f106112d1576101008083540402835291602001916112fc565b820191906000526020600020905b8154815290600101906020018083116112df57829003601f168201915b5050505050908060010180546113119061226c565b80601f016020809104026020016040519081016040528092919081815260200182805461133d9061226c565b801561138a5780601f1061135f5761010080835404028352916020019161138a565b820191906000526020600020905b81548152906001019060200180831161136d57829003601f168201915b50505050509080600201805461139f9061226c565b80601f01602080910402602001604051908101604052809291908181526020018280546113cb9061226c565b80156114185780601f106113ed57610100808354040283529160200191611418565b820191906000526020600020905b8154815290600101906020018083116113fb57829003601f168201915b50505050509080600301805461142d9061226c565b80601f01602080910402602001604051908101604052809291908181526020018280546114599061226c565b80156114a65780601f1061147b576101008083540402835291602001916114a6565b820191906000526020600020905b81548152906001019060200180831161148957829003601f168201915b5050505050908060040180546114bb9061226c565b80601f01602080910402602001604051908101604052809291908181526020018280546114e79061226c565b80156115345780601f1061150957610100808354040283529160200191611534565b820191906000526020600020905b81548152906001019060200180831161151757829003601f168201915b5050505050908060050180546115499061226c565b80601f01602080910402602001604051908101604052809291908181526020018280546115759061226c565b80156115c25780601f10611597576101008083540402835291602001916115c2565b820191906000526020600020905b8154815290600101906020018083116115a557829003601f168201915b5050505050908060060180546115d79061226c565b80601f01602080910402602001604051908101604052809291908181526020018280546116039061226c565b80156116505780601f1061162557610100808354040283529160200191611650565b820191906000526020600020905b81548152906001019060200180831161163357829003601f168201915b5050505050908060070154908060080160009054906101000a900460ff1690806009015490508a565b6060600060028111156116b5577f4e487b7100000000000000000000000000000000000000000000000000000000600052602160045260246000fd5b8260028111156116ee577f4e487b7100000000000000000000000000000000000000000000000000000000600052602160045260246000fd5b1415611731576040518060400160405280600781526020017f50656e64696e67000000000000000000000000000000000000000000000000008152509050611820565b6001600281111561176b577f4e487b7100000000000000000000000000000000000000000000000000000000600052602160045260246000fd5b8260028111156117a4577f4e487b7100000000000000000000000000000000000000000000000000000000600052602160045260246000fd5b14156117e7576040518060400160405280600881526020017f417070726f7665640000000000000000000000000000000000000000000000008152509050611820565b6040518060400160405280600881526020017f52656a656374656400000000000000000000000000000000000000000000000081525090505b919050565b8280546118319061226c565b90600052602060002090601f016020900481019282611853576000855561189a565b82601f1061186c57805160ff191683800117855561189a565b8280016001018555821561189a579182015b8281111561189957825182559160200191906001019061187e565b5b5090506118a79190611936565b5090565b604051806101400160405280606081526020016060815260200160608152602001606081526020016060815260200160608152602001606081526020016000815260200160006002811115611929577f4e487b7100000000000000000000000000000000000000000000000000000000600052602160045260246000fd5b8152602001600081525090565b5b8082111561194f576000816000905550600101611937565b5090565b6000611966611961846120f3565b6120c2565b90508281526020810184848401111561197e57600080fd5b61198984828561222a565b509392505050565b6000813590506119a0816123c8565b92915050565b6000813590506119b5816123df565b92915050565b600082601f8301126119cc57600080fd5b81356119dc848260208601611953565b91505092915050565b6000813590506119f4816123f6565b92915050565b600060208284031215611a0c57600080fd5b6000611a1a84828501611991565b91505092915050565b600080600080600080600060e0888a031215611a3e57600080fd5b600088013567ffffffffffffffff811115611a5857600080fd5b611a648a828b016119bb565b975050602088013567ffffffffffffffff811115611a8157600080fd5b611a8d8a828b016119bb565b965050604088013567ffffffffffffffff811115611aaa57600080fd5b611ab68a828b016119bb565b955050606088013567ffffffffffffffff811115611ad357600080fd5b611adf8a828b016119bb565b945050608088013567ffffffffffffffff811115611afc57600080fd5b611b088a828b016119bb565b93505060a088013567ffffffffffffffff811115611b2557600080fd5b611b318a828b016119bb565b92505060c088013567ffffffffffffffff811115611b4e57600080fd5b611b5a8a828b016119bb565b91505092959891949750929550565b600060208284031215611b7b57600080fd5b6000611b89848285016119e5565b91505092915050565b60008060408385031215611ba557600080fd5b6000611bb3858286016119e5565b9250506020611bc4858286016119a6565b9150509250929050565b6000611bda8383611d76565b905092915050565b6000611bed82612133565b611bf78185612156565b935083602082028501611c0985612123565b8060005b85811015611c455784840389528151611c268582611bce565b9450611c3183612149565b925060208a01995050600181019050611c0d565b50829750879550505050505092915050565b611c60816121cf565b82525050565b611c6f81612218565b82525050565b611c7e81612218565b82525050565b6000611c8f8261213e565b611c998185612167565b9350611ca9818560208601612239565b611cb2816123a3565b840191505092915050565b6000611cc88261213e565b611cd28185612178565b9350611ce2818560208601612239565b611ceb816123a3565b840191505092915050565b6000611d03601d83612178565b91507f4170706c69636174696f6e20616c72656164792070726f6365737365640000006000830152602082019050919050565b6000611d43601883612178565b91507f5573657220616c726561647920726567697374657265642e00000000000000006000830152602082019050919050565b6000610140830160008301518482036000860152611d948282611c84565b91505060208301518482036020860152611dae8282611c84565b91505060408301518482036040860152611dc88282611c84565b91505060608301518482036060860152611de28282611c84565b91505060808301518482036080860152611dfc8282611c84565b91505060a083015184820360a0860152611e168282611c84565b91505060c083015184820360c0860152611e308282611c84565b91505060e0830151611e4560e0860182611e7a565b50610100830151611e5a610100860182611c66565b50610120830151611e6f610120860182611e7a565b508091505092915050565b611e838161220e565b82525050565b611e928161220e565b82525050565b60006020820190508181036000830152611eb28184611be2565b905092915050565b6000602082019050611ecf6000830184611c57565b92915050565b6000610120820190508181036000830152611ef0818c611cbd565b90508181036020830152611f04818b611cbd565b90508181036040830152611f18818a611cbd565b90508181036060830152611f2c8189611cbd565b90508181036080830152611f408188611cbd565b905081810360a0830152611f548187611cbd565b905081810360c0830152611f688186611cbd565b905081810360e0830152611f7c8185611cbd565b9050611f8c610100830184611e89565b9a9950505050505050505050565b6000610140820190508181036000830152611fb5818d611cbd565b90508181036020830152611fc9818c611cbd565b90508181036040830152611fdd818b611cbd565b90508181036060830152611ff1818a611cbd565b905081810360808301526120058189611cbd565b905081810360a08301526120198188611cbd565b905081810360c083015261202d8187611cbd565b905061203c60e0830186611e89565b61204a610100830185611c75565b612058610120830184611e89565b9b9a5050505050505050505050565b6000602082019050818103600083015261208081611cf6565b9050919050565b600060208201905081810360008301526120a081611d36565b9050919050565b60006020820190506120bc6000830184611e89565b92915050565b6000604051905081810181811067ffffffffffffffff821117156120e9576120e8612374565b5b8060405250919050565b600067ffffffffffffffff82111561210e5761210d612374565b5b601f19601f8301169050602081019050919050565b6000819050602082019050919050565b600081519050919050565b600081519050919050565b6000602082019050919050565b600082825260208201905092915050565b600082825260208201905092915050565b600082825260208201905092915050565b60006121948261220e565b915061219f8361220e565b9250828210156121b2576121b16122e7565b5b828203905092915050565b60006121c8826121ee565b9050919050565b60008115159050919050565b60008190506121e9826123b4565b919050565b600073ffffffffffffffffffffffffffffffffffffffff82169050919050565b6000819050919050565b6000612223826121db565b9050919050565b82818337600083830152505050565b60005b8381101561225757808201518184015260208101905061223c565b83811115612266576000848401525b50505050565b6000600282049050600182168061228457607f821691505b6020821081141561229857612297612345565b5b50919050565b60006122a98261220e565b91507fffffffffffffffffffffffffffffffffffffffffffffffffffffffffffffffff8214156122dc576122db6122e7565b5b600182019050919050565b7f4e487b7100000000000000000000000000000000000000000000000000000000600052601160045260246000fd5b7f4e487b7100000000000000000000000000000000000000000000000000000000600052602160045260246000fd5b7f4e487b7100000000000000000000000000000000000000000000000000000000600052602260045260246000fd5b7f4e487b7100000000000000000000000000000000000000000000000000000000600052604160045260246000fd5b6000601f19601f8301169050919050565b600381106123c5576123c4612316565b5b50565b6123d1816121bd565b81146123dc57600080fd5b50565b6123e8816121cf565b81146123f357600080fd5b50565b6123ff8161220e565b811461240a57600080fd5b5056fea2646970667358221220393bfd09fe5f7f55d88e3cc828eda1eb9677796b0fd20d3690fddf225892c96a64736f6c63430008000033",
  "immutableReferences": {},
  "source": "    pragma solidity ^0.8.0;\r\n\r\n    contract Registration {\r\n        enum Status { Pending, Approved, Rejected }\r\n\r\n        struct Application {\r\n            string fullname;\r\n            string email;\r\n            string livingAddress;\r\n            string gender;\r\n            string userType;\r\n            string vehicleName;\r\n            string vehicleNumber;\r\n            uint requestId;\r\n            Status status;\r\n            uint userId;\r\n        }\r\n\r\n        mapping(uint => Application) public applications;\r\n        mapping(address => bool) public registeredUsers;\r\n        uint public requestCounter = 0;\r\n        uint public approvedUserCounter = 0;\r\n\r\n        function registerUser(\r\n            string memory fullname,\r\n            string memory email,\r\n            string memory livingAddress,\r\n            string memory gender,\r\n            string memory userType,\r\n            string memory vehicleName,\r\n            string memory vehicleNumber\r\n        ) public payable {\r\n            require(!registeredUsers[msg.sender], \"User already registered.\");\r\n\r\n            requestCounter++;\r\n            applications[requestCounter] = Application({\r\n                fullname: fullname,\r\n                email: email,\r\n                livingAddress: livingAddress,\r\n                gender: gender,\r\n                userType: userType,\r\n                vehicleName: vehicleName,\r\n                vehicleNumber: vehicleNumber,\r\n                requestId: requestCounter,\r\n                status: Status.Pending,\r\n                userId: 0\r\n            });\r\n\r\n            registeredUsers[msg.sender] = true;\r\n        }\r\n\r\n        function getApplicationDetails(uint requestId) public view returns (\r\n            string memory fullname,\r\n            string memory email,\r\n            string memory livingAddress,\r\n            string memory gender,\r\n            string memory userType,\r\n            string memory vehicleName,\r\n            string memory vehicleNumber,\r\n            string memory status,\r\n            uint userId\r\n        ) {\r\n            Application memory app = applications[requestId];\r\n            string memory statusStr = _statusToString(app.status);\r\n            return (\r\n                app.fullname,\r\n                app.email,\r\n                app.livingAddress,\r\n                app.gender,\r\n                app.userType,\r\n                app.vehicleName,\r\n                app.vehicleNumber,\r\n                statusStr,\r\n                app.userId\r\n            );\r\n        }\r\n\r\n        function setApplicationStatus(uint256 requestId, bool isApproved) public {\r\n            Application storage app = applications[requestId];\r\n\r\n            if (isApproved) {\r\n                require(app.status == Status.Pending, \"Application already processed\");\r\n                app.status = Status.Approved;  // Approved\r\n                \r\n                // Assign a userId when approved\r\n                approvedUserCounter++;\r\n                app.userId = approvedUserCounter;\r\n            } else {\r\n                require(app.status == Status.Pending, \"Application already processed\");\r\n                app.status = Status.Rejected;  // Rejected\r\n            }\r\n        }\r\n\r\n\r\n\r\n        // New function to fetch all applications\r\n        function getAllApplications() public view returns (\r\n            Application[] memory\r\n        ) {\r\n            Application[] memory apps = new Application[](requestCounter);\r\n            for (uint i = 1; i <= requestCounter; i++) {\r\n                apps[i - 1] = applications[i];\r\n            }\r\n            return apps;\r\n        }\r\n\r\n        function _statusToString(Status status) private pure returns (string memory) {\r\n            if (status == Status.Pending) return \"Pending\";\r\n            if (status == Status.Approved) return \"Approved\";\r\n            return \"Rejected\";\r\n        }\r\n    }",
  "sourcePath": "D:\\minor_project\\final_3\\contracts\\Registration.sol",
  "compiler": {
    "name": "solc",
    "version": "0.8.0+commit.c7dfd78e.Emscripten.clang"
  },
  "schemaVersion": "3.4.16",
  "updatedAt": "2024-11-12T21:33:34.260Z",
  "networkType": "ethereum",
  "devdoc": {
    "kind": "dev",
    "methods": {},
    "version": 1
  },
  "userdoc": {
    "kind": "user",
    "methods": {},
    "version": 1
  }
}